{
  "_format": "hh-sol-artifact-1",
  "contractName": "HeadsOrTails",
  "sourceName": "contracts/HeadsorTails.sol",
  "abi": [
    {
      "anonymous": false,
      "inputs": [
        {
          "indexed": true,
          "internalType": "uint8",
          "name": "side",
          "type": "uint8"
        }
      ],
      "name": "GameResult",
      "type": "event"
    },
    {
      "anonymous": false,
      "inputs": [
        {
          "indexed": true,
          "internalType": "address",
          "name": "previousOwner",
          "type": "address"
        },
        {
          "indexed": true,
          "internalType": "address",
          "name": "newOwner",
          "type": "address"
        }
      ],
      "name": "OwnershipTransferred",
      "type": "event"
    },
    {
      "inputs": [],
      "name": "destroy",
      "outputs": [],
      "stateMutability": "nonpayable",
      "type": "function"
    },
    {
      "inputs": [],
      "name": "getGameCount",
      "outputs": [
        {
          "internalType": "uint256",
          "name": "",
          "type": "uint256"
        }
      ],
      "stateMutability": "view",
      "type": "function"
    },
    {
      "inputs": [
        {
          "internalType": "uint256",
          "name": "",
          "type": "uint256"
        }
      ],
      "name": "lastPlayedGames",
      "outputs": [
        {
          "internalType": "address",
          "name": "addr",
          "type": "address"
        },
        {
          "internalType": "uint256",
          "name": "amountBet",
          "type": "uint256"
        },
        {
          "internalType": "uint8",
          "name": "guess",
          "type": "uint8"
        },
        {
          "internalType": "bool",
          "name": "winner",
          "type": "bool"
        },
        {
          "internalType": "uint256",
          "name": "ethInJackpot",
          "type": "uint256"
        }
      ],
      "stateMutability": "view",
      "type": "function"
    },
    {
      "inputs": [
        {
          "internalType": "uint8",
          "name": "guess",
          "type": "uint8"
        }
      ],
      "name": "lottery",
      "outputs": [
        {
          "internalType": "bool",
          "name": "",
          "type": "bool"
        }
      ],
      "stateMutability": "payable",
      "type": "function"
    },
    {
      "inputs": [],
      "name": "name",
      "outputs": [
        {
          "internalType": "string",
          "name": "",
          "type": "string"
        }
      ],
      "stateMutability": "view",
      "type": "function"
    },
    {
      "inputs": [],
      "name": "owner",
      "outputs": [
        {
          "internalType": "address",
          "name": "",
          "type": "address"
        }
      ],
      "stateMutability": "view",
      "type": "function"
    },
    {
      "inputs": [],
      "name": "renounceOwnership",
      "outputs": [],
      "stateMutability": "nonpayable",
      "type": "function"
    },
    {
      "inputs": [
        {
          "internalType": "address",
          "name": "newOwner",
          "type": "address"
        }
      ],
      "name": "transferOwnership",
      "outputs": [],
      "stateMutability": "nonpayable",
      "type": "function"
    },
    {
      "inputs": [
        {
          "internalType": "uint256",
          "name": "amount",
          "type": "uint256"
        }
      ],
      "name": "withdraw",
      "outputs": [],
      "stateMutability": "nonpayable",
      "type": "function"
    },
    {
      "stateMutability": "payable",
      "type": "receive"
    }
  ],
  "bytecode": "0x608060405234801561001057600080fd5b5061002d61002261003260201b60201c565b61003a60201b60201c565b6100fe565b600033905090565b60008060009054906101000a900473ffffffffffffffffffffffffffffffffffffffff169050816000806101000a81548173ffffffffffffffffffffffffffffffffffffffff021916908373ffffffffffffffffffffffffffffffffffffffff1602179055508173ffffffffffffffffffffffffffffffffffffffff168173ffffffffffffffffffffffffffffffffffffffff167f8be0079c531659141344cd1fd0a4f28419497f9722a3daafe3b4186f6b6457e060405160405180910390a35050565b6112bc8061010d6000396000f3fe60806040526004361061008a5760003560e01c80638da5cb5b116100595780638da5cb5b14610118578063a80de5ea14610143578063c53c0ac314610173578063e87c0ee6146101b4578063f2fde38b146101df57610091565b806306fdde03146100965780632e1a7d4d146100c1578063715018a6146100ea57806383197ef01461010157610091565b3661009157005b600080fd5b3480156100a257600080fd5b506100ab610208565b6040516100b89190610d06565b60405180910390f35b3480156100cd57600080fd5b506100e860048036038101906100e39190610ab9565b610296565b005b3480156100f657600080fd5b506100ff610329565b005b34801561010d57600080fd5b506101166103b1565b005b34801561012457600080fd5b5061012d61044d565b60405161013a9190610c7d565b60405180910390f35b61015d60048036038101906101589190610ae6565b610476565b60405161016a9190610ceb565b60405180910390f35b34801561017f57600080fd5b5061019a60048036038101906101959190610ab9565b610781565b6040516101ab959493929190610c98565b60405180910390f35b3480156101c057600080fd5b506101c9610801565b6040516101d69190610e08565b60405180910390f35b3480156101eb57600080fd5b5061020660048036038101906102019190610a8c565b61080e565b005b6001805461021590610f55565b80601f016020809104026020016040519081016040528092919081815260200182805461024190610f55565b801561028e5780601f106102635761010080835404028352916020019161028e565b820191906000526020600020905b81548152906001019060200180831161027157829003601f168201915b505050505081565b4781106102d8576040517f08c379a00000000000000000000000000000000000000000000000000000000081526004016102cf90610da8565b60405180910390fd5b6102e061044d565b73ffffffffffffffffffffffffffffffffffffffff166108fc829081150290604051600060405180830381858888f19350505050158015610325573d6000803e3d6000fd5b5050565b610331610906565b73ffffffffffffffffffffffffffffffffffffffff1661034f61044d565b73ffffffffffffffffffffffffffffffffffffffff16146103a5576040517f08c379a000000000000000000000000000000000000000000000000000000000815260040161039c90610d88565b60405180910390fd5b6103af600061090e565b565b6103b9610906565b73ffffffffffffffffffffffffffffffffffffffff166103d761044d565b73ffffffffffffffffffffffffffffffffffffffff161461042d576040517f08c379a000000000000000000000000000000000000000000000000000000000815260040161042490610d88565b60405180910390fd5b61043561044d565b73ffffffffffffffffffffffffffffffffffffffff16ff5b60008060009054906101000a900473ffffffffffffffffffffffffffffffffffffffff16905090565b6000808260ff16148061048c575060018260ff16145b6104cb576040517f08c379a00000000000000000000000000000000000000000000000000000000081526004016104c290610dc8565b60405180910390fd5b6000341161050e576040517f08c379a000000000000000000000000000000000000000000000000000000000815260040161050590610de8565b60405180910390fd5b6001151561052261051d610906565b6109d2565b151514610564576040517f08c379a000000000000000000000000000000000000000000000000000000000815260040161055b90610d28565b60405180910390fd5b34476105709190610e99565b3411156105b2576040517f08c379a00000000000000000000000000000000000000000000000000000000081526004016105a990610d68565b60405180910390fd5b600060026105be6109e5565b60001c6105cb9190610f87565b905060008160ff168460ff16141561063c576105e5610906565b73ffffffffffffffffffffffffffffffffffffffff166108fc60023461060b9190610e3f565b9081150290604051600060405180830381858888f19350505050158015610636573d6000803e3d6000fd5b50600190505b60026040518060a001604052803373ffffffffffffffffffffffffffffffffffffffff1681526020013481526020018660ff168152602001831515815260200147815250908060018154018082558091505060019003906000526020600020906004020160009091909190915060008201518160000160006101000a81548173ffffffffffffffffffffffffffffffffffffffff021916908373ffffffffffffffffffffffffffffffffffffffff1602179055506020820151816001015560408201518160020160006101000a81548160ff021916908360ff16021790555060608201518160020160016101000a81548160ff0219169083151502179055506080820151816003015550508160ff167f911dde7c1cdac49a22cc9be96a8cdb6541d7c177301f54a451988479a6c02e9260405160405180910390a28092505050919050565b6002818154811061079157600080fd5b90600052602060002090600402016000915090508060000160009054906101000a900473ffffffffffffffffffffffffffffffffffffffff16908060010154908060020160009054906101000a900460ff16908060020160019054906101000a900460ff16908060030154905085565b6000600280549050905090565b610816610906565b73ffffffffffffffffffffffffffffffffffffffff1661083461044d565b73ffffffffffffffffffffffffffffffffffffffff161461088a576040517f08c379a000000000000000000000000000000000000000000000000000000000815260040161088190610d88565b60405180910390fd5b600073ffffffffffffffffffffffffffffffffffffffff168173ffffffffffffffffffffffffffffffffffffffff1614156108fa576040517f08c379a00000000000000000000000000000000000000000000000000000000081526004016108f190610d48565b60405180910390fd5b6109038161090e565b50565b600033905090565b60008060009054906101000a900473ffffffffffffffffffffffffffffffffffffffff169050816000806101000a81548173ffffffffffffffffffffffffffffffffffffffff021916908373ffffffffffffffffffffffffffffffffffffffff1602179055508173ffffffffffffffffffffffffffffffffffffffff168173ffffffffffffffffffffffffffffffffffffffff167f8be0079c531659141344cd1fd0a4f28419497f9722a3daafe3b4186f6b6457e060405160405180910390a35050565b600080823b905060008111915050919050565b60006109ef610a2b565b4381600060018110610a0457610a03611045565b5b60200201818152505060405160208160208460ff600019fa610a2257fe5b80519250505090565b6040518060200160405280600190602082028036833780820191505090505090565b600081359050610a5c81611241565b92915050565b600081359050610a7181611258565b92915050565b600081359050610a868161126f565b92915050565b600060208284031215610aa257610aa1611074565b5b6000610ab084828501610a4d565b91505092915050565b600060208284031215610acf57610ace611074565b5b6000610add84828501610a62565b91505092915050565b600060208284031215610afc57610afb611074565b5b6000610b0a84828501610a77565b91505092915050565b610b1c81610ecd565b82525050565b610b2b81610edf565b82525050565b6000610b3c82610e23565b610b468185610e2e565b9350610b56818560208601610f22565b610b5f81611079565b840191505092915050565b6000610b77601983610e2e565b9150610b828261108a565b602082019050919050565b6000610b9a602683610e2e565b9150610ba5826110b3565b604082019050919050565b6000610bbd603983610e2e565b9150610bc882611102565b604082019050919050565b6000610be0602083610e2e565b9150610beb82611151565b602082019050919050565b6000610c03603f83610e2e565b9150610c0e8261117a565b604082019050919050565b6000610c26603c83610e2e565b9150610c31826111c9565b604082019050919050565b6000610c49600f83610e2e565b9150610c5482611218565b602082019050919050565b610c6881610f0b565b82525050565b610c7781610f15565b82525050565b6000602082019050610c926000830184610b13565b92915050565b600060a082019050610cad6000830188610b13565b610cba6020830187610c5f565b610cc76040830186610c6e565b610cd46060830185610b22565b610ce16080830184610c5f565b9695505050505050565b6000602082019050610d006000830184610b22565b92915050565b60006020820190508181036000830152610d208184610b31565b905092915050565b60006020820190508181036000830152610d4181610b6a565b9050919050565b60006020820190508181036000830152610d6181610b8d565b9050919050565b60006020820190508181036000830152610d8181610bb0565b9050919050565b60006020820190508181036000830152610da181610bd3565b9050919050565b60006020820190508181036000830152610dc181610bf6565b9050919050565b60006020820190508181036000830152610de181610c19565b9050919050565b60006020820190508181036000830152610e0181610c3c565b9050919050565b6000602082019050610e1d6000830184610c5f565b92915050565b600081519050919050565b600082825260208201905092915050565b6000610e4a82610f0b565b9150610e5583610f0b565b9250817fffffffffffffffffffffffffffffffffffffffffffffffffffffffffffffffff0483118215151615610e8e57610e8d610fb8565b5b828202905092915050565b6000610ea482610f0b565b9150610eaf83610f0b565b925082821015610ec257610ec1610fb8565b5b828203905092915050565b6000610ed882610eeb565b9050919050565b60008115159050919050565b600073ffffffffffffffffffffffffffffffffffffffff82169050919050565b6000819050919050565b600060ff82169050919050565b60005b83811015610f40578082015181840152602081019050610f25565b83811115610f4f576000848401525b50505050565b60006002820490506001821680610f6d57607f821691505b60208210811415610f8157610f80611016565b5b50919050565b6000610f9282610f0b565b9150610f9d83610f0b565b925082610fad57610fac610fe7565b5b828206905092915050565b7f4e487b7100000000000000000000000000000000000000000000000000000000600052601160045260246000fd5b7f4e487b7100000000000000000000000000000000000000000000000000000000600052601260045260246000fd5b7f4e487b7100000000000000000000000000000000000000000000000000000000600052602260045260246000fd5b7f4e487b7100000000000000000000000000000000000000000000000000000000600052603260045260246000fd5b600080fd5b6000601f19601f8301169050919050565b7f436f6e74726163742063616c6c206e6f7420616c6c6f77656400000000000000600082015250565b7f4f776e61626c653a206e6577206f776e657220697320746865207a65726f206160008201527f6464726573730000000000000000000000000000000000000000000000000000602082015250565b7f596f752063616e6e6f7420626574206d6f7265207468616e207768617420697360008201527f20617661696c61626c6520696e20746865206a61636b706f7400000000000000602082015250565b7f4f776e61626c653a2063616c6c6572206973206e6f7420746865206f776e6572600082015250565b7f596f752063616e6e6f74207769746864726177206d6f7265207468616e20776860008201527f617420697320617661696c61626c6520696e2074686520636f6e747261637400602082015250565b7f5661726961626c6520276775657373272073686f756c6420626520656974686560008201527f72203020282768656164732729206f7220312028277461696c73272900000000602082015250565b7f426574206d6f7265207468616e20300000000000000000000000000000000000600082015250565b61124a81610ecd565b811461125557600080fd5b50565b61126181610f0b565b811461126c57600080fd5b50565b61127881610f15565b811461128357600080fd5b5056fea26469706673582212209439276d6d36fb0814c7e3fb2a37e01f2557316540bb1b7836619634629f8c0e64736f6c63430008070033",
  "linkReferences": {},
  "deployedLinkReferences": {}
}